:100000000C942A000C9434000C9434000C943400AA
:100010000C9434000C9434000C9434000C94340090
:100020000C9434000C9434000C9434000C94340080
:100030000C9434000C9434000C9434000C94340070
:100040000C9434000C9434000C9434000C94340060
:100050000C94340011241FBECFE5D8E0DEBFCDBF25
:100060000E9436000C9465000C9400008FEF81BB59
:100070004FEF2CE231E050E842BB88E893E1F90110
:100080003197F1F70197D9F712BA88E893E1F901AE
:100090003197F1F70197D9F742BB88E893E1F9016D
:1000A0003197F1F70197D9F752BB88E893E1F9014D
:1000B0003197F1F70197D9F742BB88E893E1F9014D
:0E00C0003197F1F70197D9F7D7CFF894FFCF1A
:00000001FF
