:100000000C942A000C9434000C9434000C943400AA
:100010000C9434000C9434000C9434000C94340090
:100020000C9434000C9434000C9434000C94340080
:100030000C9434000C9434000C9434000C94340070
:100040000C9434000C9434000C9434000C94340060
:100050000C94340011241FBECFE5D8E0DEBFCDBF25
:100060000E9436000C9461000C9400008FEF81BB5D
:10007000A3E02CE231E077E06FE05FE44FE6A2BB63
:1000800088E893E1F9013197F1F70197D9F772BB4D
:1000900088E893E1F9013197F1F70197D9F762BB4D
:1000A00088E893E1F9013197F1F70197D9F752BB4D
:1000B00088E893E1F9013197F1F70197D9F742BB4D
:0600C000DECFF894FFCF33
:00000001FF
