:100000000C942A000C9434000C9434000C943400AA
:100010000C9434000C9434000C9434000C94340090
:100020000C9434000C9434000C9434000C94340080
:100030000C9434000C9434000C9434000C94340070
:100040000C9434000C9434000C9434000C94340060
:100050000C94340011241FBECFE5D8E0DEBFCDBF25
:100060000E9465000C9485000C940000DF93CF93F0
:10007000CDB7DEB7A7E3B0E0E7E3F0E080818064CE
:100080008C93A7E3B0E0E7E3F0E080818F748C937A
:10009000EDE2F0E080E48083CF91DF910895DF937B
:1000A000CF930F92CDB7DEB78983EFE2F0E089817D
:1000B0008083EDE2F0E080818823DCF7EDE2F0E080
:1000C00080810F90CF91DF9108950F931F93DF935D
:1000D000CF930F92CDB7DEB78FEF8983EAE3F0E0DD
:1000E0008FEF80830E9436008FEF89830AC00BE375
:1000F00010E089810E944F00F8018083898181503E
:0E01000089838981882399F7EFCFF894FFCF88
:00000001FF
