:100000000C942A000C9434000C9434000C943400AA
:100010000C9434000C9434000C9434000C94340090
:100020000C9434000C9434000C9434000C94340080
:100030000C9434000C9434000C9434000C94340070
:100040000C9434000C9434000C9434000C94340060
:100050000C94340011241FBECFE5D8E0DEBFCDBF25
:100060000E948C010C94A6010C940000813049F090
:10007000813028F0823039F0833041F406C06ABB09
:10008000089567BB089564BB089561BB08958130EE
:1000900049F0813028F0823039F0833041F406C0D5
:1000A0006BBB089568BB089565BB089562BB089556
:1000B000813029F1813038F0823009F43CC083303E
:1000C00009F06EC053C0413059F42AB381E090E08A
:1000D00002C0880F991F6A95E2F7282B2ABB089562
:1000E000442309F05DC02AB381E090E002C0880F8C
:1000F000991F6A95E2F7809582238ABB0895413063
:1001000059F427B381E090E002C0880F991F6A95E7
:10011000E2F7282B27BB0895442309F041C027B3F9
:1001200081E090E002C0880F991F6A95E2F7809500
:10013000822387BB0895413059F424B381E090E0D5
:1001400002C0880F991F6A95E2F7282B24BB0895F7
:10015000442331F524B381E090E002C0880F991F59
:100160006A95E2F78095822384BB0895413059F463
:1001700021B381E090E002C0880F991F6A95E2F7F1
:10018000282B21BB0895442359F421B381E090E04A
:1001900002C0880F991F6A95E2F78095822381BB80
:1001A0000895813029F1813038F0823009F43CC063
:1001B000833009F06EC053C0413059F42BB381E055
:1001C00090E002C0880F991F6A95E2F7282B2BBB9D
:1001D0000895442309F05DC02BB381E090E002C094
:1001E000880F991F6A95E2F7809582238BBB08954B
:1001F000413059F428B381E090E002C0880F991F84
:100200006A95E2F7282B28BB0895442309F041C0E2
:1002100028B381E090E002C0880F991F6A95E2F749
:100220008095822388BB0895413059F425B381E03D
:1002300090E002C0880F991F6A95E2F7282B25BB32
:100240000895442331F525B381E090E002C0880F82
:10025000991F6A95E2F78095822385BB0895413006
:1002600059F422B381E090E002C0880F991F6A958B
:10027000E2F7282B22BB0895442359F422B381E0EE
:1002800090E002C0880F991F6A95E2F7809582235B
:1002900082BB0895813049F0813028F0823039F0F6
:1002A000833041F406C089B3089586B3089583B3BB
:1002B000089580B30895813049F0813028F082306C
:1002C00039F0833041F516C029B303C026B301C00D
:1002D00023B381E090E0062E02C0880F991F0A9494
:1002E000E2F730E08223932302C0959587956A95C3
:1002F000E2F7089520B381E090E0062E02C0880F57
:10030000991F0A94E2F730E08223932302C0959567
:1003100087956A95E2F708958FEF81BB27E061E04A
:1003200070E04CE251E0CB01022E02C0880F991F11
:100330000A94E2F782BB80E197E2FA013197F1F784
:100340000197D9F7215079F727E0EDCFF894FFCF47
:00000001FF
